{
  "_format": "hh-sol-artifact-1",
  "contractName": "Marketplace",
  "sourceName": "contracts/Marketplace.sol",
  "abi": [
    {
      "inputs": [],
      "stateMutability": "nonpayable",
      "type": "constructor"
    },
    {
      "inputs": [
        {
          "internalType": "address",
          "name": "sender",
          "type": "address"
        },
        {
          "internalType": "uint256",
          "name": "tokenId",
          "type": "uint256"
        },
        {
          "internalType": "address",
          "name": "owner",
          "type": "address"
        }
      ],
      "name": "ERC721IncorrectOwner",
      "type": "error"
    },
    {
      "inputs": [
        {
          "internalType": "address",
          "name": "operator",
          "type": "address"
        },
        {
          "internalType": "uint256",
          "name": "tokenId",
          "type": "uint256"
        }
      ],
      "name": "ERC721InsufficientApproval",
      "type": "error"
    },
    {
      "inputs": [
        {
          "internalType": "address",
          "name": "approver",
          "type": "address"
        }
      ],
      "name": "ERC721InvalidApprover",
      "type": "error"
    },
    {
      "inputs": [
        {
          "internalType": "address",
          "name": "operator",
          "type": "address"
        }
      ],
      "name": "ERC721InvalidOperator",
      "type": "error"
    },
    {
      "inputs": [
        {
          "internalType": "address",
          "name": "owner",
          "type": "address"
        }
      ],
      "name": "ERC721InvalidOwner",
      "type": "error"
    },
    {
      "inputs": [
        {
          "internalType": "address",
          "name": "receiver",
          "type": "address"
        }
      ],
      "name": "ERC721InvalidReceiver",
      "type": "error"
    },
    {
      "inputs": [
        {
          "internalType": "address",
          "name": "sender",
          "type": "address"
        }
      ],
      "name": "ERC721InvalidSender",
      "type": "error"
    },
    {
      "inputs": [
        {
          "internalType": "uint256",
          "name": "tokenId",
          "type": "uint256"
        }
      ],
      "name": "ERC721NonexistentToken",
      "type": "error"
    },
    {
      "anonymous": false,
      "inputs": [
        {
          "indexed": true,
          "internalType": "address",
          "name": "owner",
          "type": "address"
        },
        {
          "indexed": true,
          "internalType": "address",
          "name": "approved",
          "type": "address"
        },
        {
          "indexed": true,
          "internalType": "uint256",
          "name": "tokenId",
          "type": "uint256"
        }
      ],
      "name": "Approval",
      "type": "event"
    },
    {
      "anonymous": false,
      "inputs": [
        {
          "indexed": true,
          "internalType": "address",
          "name": "owner",
          "type": "address"
        },
        {
          "indexed": true,
          "internalType": "address",
          "name": "operator",
          "type": "address"
        },
        {
          "indexed": false,
          "internalType": "bool",
          "name": "approved",
          "type": "bool"
        }
      ],
      "name": "ApprovalForAll",
      "type": "event"
    },
    {
      "anonymous": false,
      "inputs": [
        {
          "indexed": false,
          "internalType": "uint256",
          "name": "_fromTokenId",
          "type": "uint256"
        },
        {
          "indexed": false,
          "internalType": "uint256",
          "name": "_toTokenId",
          "type": "uint256"
        }
      ],
      "name": "BatchMetadataUpdate",
      "type": "event"
    },
    {
      "anonymous": false,
      "inputs": [
        {
          "indexed": false,
          "internalType": "uint256",
          "name": "_tokenId",
          "type": "uint256"
        }
      ],
      "name": "MetadataUpdate",
      "type": "event"
    },
    {
      "anonymous": false,
      "inputs": [
        {
          "indexed": true,
          "internalType": "address",
          "name": "from",
          "type": "address"
        },
        {
          "indexed": true,
          "internalType": "address",
          "name": "to",
          "type": "address"
        },
        {
          "indexed": true,
          "internalType": "uint256",
          "name": "tokenId",
          "type": "uint256"
        }
      ],
      "name": "Transfer",
      "type": "event"
    },
    {
      "inputs": [
        {
          "internalType": "uint256",
          "name": "",
          "type": "uint256"
        }
      ],
      "name": "_tokenExists",
      "outputs": [
        {
          "internalType": "bool",
          "name": "",
          "type": "bool"
        }
      ],
      "stateMutability": "view",
      "type": "function"
    },
    {
      "inputs": [
        {
          "internalType": "uint256",
          "name": "",
          "type": "uint256"
        }
      ],
      "name": "_tokenPrices",
      "outputs": [
        {
          "internalType": "uint256",
          "name": "",
          "type": "uint256"
        }
      ],
      "stateMutability": "view",
      "type": "function"
    },
    {
      "inputs": [
        {
          "internalType": "uint256",
          "name": "",
          "type": "uint256"
        }
      ],
      "name": "_tokenRoyalty",
      "outputs": [
        {
          "internalType": "uint256",
          "name": "",
          "type": "uint256"
        }
      ],
      "stateMutability": "view",
      "type": "function"
    },
    {
      "inputs": [
        {
          "internalType": "uint256",
          "name": "",
          "type": "uint256"
        }
      ],
      "name": "_tokenSellers",
      "outputs": [
        {
          "internalType": "address",
          "name": "",
          "type": "address"
        }
      ],
      "stateMutability": "view",
      "type": "function"
    },
    {
      "inputs": [
        {
          "internalType": "address",
          "name": "to",
          "type": "address"
        },
        {
          "internalType": "uint256",
          "name": "tokenId",
          "type": "uint256"
        }
      ],
      "name": "approve",
      "outputs": [],
      "stateMutability": "nonpayable",
      "type": "function"
    },
    {
      "inputs": [
        {
          "internalType": "address",
          "name": "owner",
          "type": "address"
        }
      ],
      "name": "balanceOf",
      "outputs": [
        {
          "internalType": "uint256",
          "name": "",
          "type": "uint256"
        }
      ],
      "stateMutability": "view",
      "type": "function"
    },
    {
      "inputs": [
        {
          "internalType": "uint256",
          "name": "_tokenId",
          "type": "uint256"
        }
      ],
      "name": "buyNFT",
      "outputs": [],
      "stateMutability": "payable",
      "type": "function"
    },
    {
      "inputs": [
        {
          "internalType": "uint256",
          "name": "tokenId",
          "type": "uint256"
        }
      ],
      "name": "getApproved",
      "outputs": [
        {
          "internalType": "address",
          "name": "",
          "type": "address"
        }
      ],
      "stateMutability": "view",
      "type": "function"
    },
    {
      "inputs": [
        {
          "internalType": "uint256",
          "name": "_tokenId",
          "type": "uint256"
        }
      ],
      "name": "getTokenPrice",
      "outputs": [
        {
          "internalType": "uint256",
          "name": "",
          "type": "uint256"
        }
      ],
      "stateMutability": "view",
      "type": "function"
    },
    {
      "inputs": [
        {
          "internalType": "uint256",
          "name": "_tokenId",
          "type": "uint256"
        }
      ],
      "name": "getTokenRoyalty",
      "outputs": [
        {
          "internalType": "uint256",
          "name": "",
          "type": "uint256"
        }
      ],
      "stateMutability": "view",
      "type": "function"
    },
    {
      "inputs": [
        {
          "internalType": "address",
          "name": "owner",
          "type": "address"
        },
        {
          "internalType": "address",
          "name": "operator",
          "type": "address"
        }
      ],
      "name": "isApprovedForAll",
      "outputs": [
        {
          "internalType": "bool",
          "name": "",
          "type": "bool"
        }
      ],
      "stateMutability": "view",
      "type": "function"
    },
    {
      "inputs": [
        {
          "internalType": "address",
          "name": "_to",
          "type": "address"
        },
        {
          "internalType": "uint256",
          "name": "_price",
          "type": "uint256"
        },
        {
          "internalType": "uint256",
          "name": "_royalty",
          "type": "uint256"
        },
        {
          "internalType": "string",
          "name": "_uri",
          "type": "string"
        }
      ],
      "name": "mint",
      "outputs": [
        {
          "internalType": "uint256",
          "name": "",
          "type": "uint256"
        }
      ],
      "stateMutability": "nonpayable",
      "type": "function"
    },
    {
      "inputs": [],
      "name": "name",
      "outputs": [
        {
          "internalType": "string",
          "name": "",
          "type": "string"
        }
      ],
      "stateMutability": "view",
      "type": "function"
    },
    {
      "inputs": [
        {
          "internalType": "uint256",
          "name": "tokenId",
          "type": "uint256"
        }
      ],
      "name": "ownerOf",
      "outputs": [
        {
          "internalType": "address",
          "name": "",
          "type": "address"
        }
      ],
      "stateMutability": "view",
      "type": "function"
    },
    {
      "inputs": [
        {
          "internalType": "address",
          "name": "from",
          "type": "address"
        },
        {
          "internalType": "address",
          "name": "to",
          "type": "address"
        },
        {
          "internalType": "uint256",
          "name": "tokenId",
          "type": "uint256"
        }
      ],
      "name": "safeTransferFrom",
      "outputs": [],
      "stateMutability": "nonpayable",
      "type": "function"
    },
    {
      "inputs": [
        {
          "internalType": "address",
          "name": "from",
          "type": "address"
        },
        {
          "internalType": "address",
          "name": "to",
          "type": "address"
        },
        {
          "internalType": "uint256",
          "name": "tokenId",
          "type": "uint256"
        },
        {
          "internalType": "bytes",
          "name": "data",
          "type": "bytes"
        }
      ],
      "name": "safeTransferFrom",
      "outputs": [],
      "stateMutability": "nonpayable",
      "type": "function"
    },
    {
      "inputs": [
        {
          "internalType": "address",
          "name": "operator",
          "type": "address"
        },
        {
          "internalType": "bool",
          "name": "approved",
          "type": "bool"
        }
      ],
      "name": "setApprovalForAll",
      "outputs": [],
      "stateMutability": "nonpayable",
      "type": "function"
    },
    {
      "inputs": [
        {
          "internalType": "uint256",
          "name": "_tokenId",
          "type": "uint256"
        },
        {
          "internalType": "uint256",
          "name": "_price",
          "type": "uint256"
        }
      ],
      "name": "setTokenPrice",
      "outputs": [],
      "stateMutability": "nonpayable",
      "type": "function"
    },
    {
      "inputs": [
        {
          "internalType": "bytes4",
          "name": "interfaceId",
          "type": "bytes4"
        }
      ],
      "name": "supportsInterface",
      "outputs": [
        {
          "internalType": "bool",
          "name": "",
          "type": "bool"
        }
      ],
      "stateMutability": "view",
      "type": "function"
    },
    {
      "inputs": [],
      "name": "symbol",
      "outputs": [
        {
          "internalType": "string",
          "name": "",
          "type": "string"
        }
      ],
      "stateMutability": "view",
      "type": "function"
    },
    {
      "inputs": [
        {
          "internalType": "uint256",
          "name": "tokenId",
          "type": "uint256"
        }
      ],
      "name": "tokenURI",
      "outputs": [
        {
          "internalType": "string",
          "name": "",
          "type": "string"
        }
      ],
      "stateMutability": "view",
      "type": "function"
    },
    {
      "inputs": [
        {
          "internalType": "address",
          "name": "from",
          "type": "address"
        },
        {
          "internalType": "address",
          "name": "to",
          "type": "address"
        },
        {
          "internalType": "uint256",
          "name": "tokenId",
          "type": "uint256"
        }
      ],
      "name": "transferFrom",
      "outputs": [],
      "stateMutability": "nonpayable",
      "type": "function"
    }
  ],
  "bytecode": "0x60806040523480156200001157600080fd5b506040518060400160405280600a81526020017f4150504156454e474552000000000000000000000000000000000000000000008152506040518060400160405280600781526020017f4156454e4745520000000000000000000000000000000000000000000000000081525081600090816200008f919062000324565b508060019081620000a1919062000324565b5050506200040b565b600081519050919050565b7f4e487b7100000000000000000000000000000000000000000000000000000000600052604160045260246000fd5b7f4e487b7100000000000000000000000000000000000000000000000000000000600052602260045260246000fd5b600060028204905060018216806200012c57607f821691505b602082108103620001425762000141620000e4565b5b50919050565b60008190508160005260206000209050919050565b60006020601f8301049050919050565b600082821b905092915050565b600060088302620001ac7fffffffffffffffffffffffffffffffffffffffffffffffffffffffffffffffff826200016d565b620001b886836200016d565b95508019841693508086168417925050509392505050565b6000819050919050565b6000819050919050565b600062000205620001ff620001f984620001d0565b620001da565b620001d0565b9050919050565b6000819050919050565b6200022183620001e4565b6200023962000230826200020c565b8484546200017a565b825550505050565b600090565b6200025062000241565b6200025d81848462000216565b505050565b5b8181101562000285576200027960008262000246565b60018101905062000263565b5050565b601f821115620002d4576200029e8162000148565b620002a9846200015d565b81016020851015620002b9578190505b620002d1620002c8856200015d565b83018262000262565b50505b505050565b600082821c905092915050565b6000620002f960001984600802620002d9565b1980831691505092915050565b6000620003148383620002e6565b9150826002028217905092915050565b6200032f82620000aa565b67ffffffffffffffff8111156200034b576200034a620000b5565b5b62000357825462000113565b6200036482828562000289565b600060209050601f8311600181146200039c576000841562000387578287015190505b62000393858262000306565b86555062000403565b601f198416620003ac8662000148565b60005b82811015620003d657848901518255600182019150602085019450602081019050620003af565b86831015620003f65784890151620003f2601f891682620002e6565b8355505b6001600288020188555050505b505050505050565b612ec8806200041b6000396000f3fe6080604052600436106101355760003560e01c8063833b7b78116100ab578063b88d4fde1161006f578063b88d4fde14610475578063bb7fde711461049e578063c457fb37146104db578063c87b56dd14610518578063e985e9c514610555578063eb685c471461059257610135565b8063833b7b781461036a578063895e8b23146103a757806395d89b41146103e4578063a22cb4651461040f578063aa3b13d01461043857610135565b806342842e0e116100fd57806342842e0e1461023157806351ed82881461025a5780635af7b71b146102765780636352211e146102b357806370a08231146102f05780637d4cf7521461032d57610135565b806301ffc9a71461013a57806306fdde0314610177578063081812fc146101a2578063095ea7b3146101df57806323b872dd14610208575b600080fd5b34801561014657600080fd5b50610161600480360381019061015c9190612150565b6105bb565b60405161016e9190612198565b60405180910390f35b34801561018357600080fd5b5061018c61061c565b6040516101999190612243565b60405180910390f35b3480156101ae57600080fd5b506101c960048036038101906101c4919061229b565b6106ae565b6040516101d69190612309565b60405180910390f35b3480156101eb57600080fd5b5061020660048036038101906102019190612350565b6106ca565b005b34801561021457600080fd5b5061022f600480360381019061022a9190612390565b6106e0565b005b34801561023d57600080fd5b5061025860048036038101906102539190612390565b6107e2565b005b610274600480360381019061026f919061229b565b610802565b005b34801561028257600080fd5b5061029d6004803603810190610298919061229b565b610ad4565b6040516102aa9190612309565b60405180910390f35b3480156102bf57600080fd5b506102da60048036038101906102d5919061229b565b610b07565b6040516102e79190612309565b60405180910390f35b3480156102fc57600080fd5b50610317600480360381019061031291906123e3565b610b19565b604051610324919061241f565b60405180910390f35b34801561033957600080fd5b50610354600480360381019061034f919061229b565b610bd3565b604051610361919061241f565b60405180910390f35b34801561037657600080fd5b50610391600480360381019061038c919061229b565b610beb565b60405161039e919061241f565b60405180910390f35b3480156103b357600080fd5b506103ce60048036038101906103c9919061229b565b610c08565b6040516103db9190612198565b60405180910390f35b3480156103f057600080fd5b506103f9610c28565b6040516104069190612243565b60405180910390f35b34801561041b57600080fd5b5061043660048036038101906104319190612466565b610cba565b005b34801561044457600080fd5b5061045f600480360381019061045a919061229b565b610cd0565b60405161046c919061241f565b60405180910390f35b34801561048157600080fd5b5061049c600480360381019061049791906125db565b610ce8565b005b3480156104aa57600080fd5b506104c560048036038101906104c091906126be565b610d05565b6040516104d2919061241f565b60405180910390f35b3480156104e757600080fd5b5061050260048036038101906104fd919061229b565b610e39565b60405161050f919061241f565b60405180910390f35b34801561052457600080fd5b5061053f600480360381019061053a919061229b565b610e56565b60405161054c9190612243565b60405180910390f35b34801561056157600080fd5b5061057c60048036038101906105779190612746565b610f69565b6040516105899190612198565b60405180910390f35b34801561059e57600080fd5b506105b960048036038101906105b49190612786565b610ffd565b005b6000634906490660e01b7bffffffffffffffffffffffffffffffffffffffffffffffffffffffff1916827bffffffffffffffffffffffffffffffffffffffffffffffffffffffff1916148061061557506106148261108f565b5b9050919050565b60606000805461062b906127f5565b80601f0160208091040260200160405190810160405280929190818152602001828054610657906127f5565b80156106a45780601f10610679576101008083540402835291602001916106a4565b820191906000526020600020905b81548152906001019060200180831161068757829003601f168201915b5050505050905090565b60006106b982611171565b506106c3826111f9565b9050919050565b6106dc82826106d7611236565b61123e565b5050565b600073ffffffffffffffffffffffffffffffffffffffff168273ffffffffffffffffffffffffffffffffffffffff16036107525760006040517f64a0ae920000000000000000000000000000000000000000000000000000000081526004016107499190612309565b60405180910390fd5b60006107668383610761611236565b611250565b90508373ffffffffffffffffffffffffffffffffffffffff168173ffffffffffffffffffffffffffffffffffffffff16146107dc578382826040517f64283d7b0000000000000000000000000000000000000000000000000000000081526004016107d393929190612826565b60405180910390fd5b50505050565b6107fd83838360405180602001604052806000815250610ce8565b505050565b600b600082815260200190815260200160002060009054906101000a900460ff16610862576040517f08c379a0000000000000000000000000000000000000000000000000000000008152600401610859906128a9565b60405180910390fd5b60006008600083815260200190815260200160002060009054906101000a900473ffffffffffffffffffffffffffffffffffffffff1690506000600960008481526020019081526020016000205490506000606482600a6000878152602001908152602001600020546108d591906128f8565b6108df9190612969565b905060003390506108ef85610b07565b73ffffffffffffffffffffffffffffffffffffffff166008600087815260200190815260200160002060009054906101000a900473ffffffffffffffffffffffffffffffffffffffff1673ffffffffffffffffffffffffffffffffffffffff16146109aa57600061095f86610b07565b90508073ffffffffffffffffffffffffffffffffffffffff166108fc849081150290604051600060405180830381858888f193505050501580156109a7573d6000803e3d6000fd5b50505b8373ffffffffffffffffffffffffffffffffffffffff166108fc83856109d0919061299a565b9081150290604051600060405180830381858888f193505050501580156109fb573d6000803e3d6000fd5b50610a0784828761146a565b806008600087815260200190815260200160002060006101000a81548173ffffffffffffffffffffffffffffffffffffffff021916908373ffffffffffffffffffffffffffffffffffffffff16021790555060006009600087815260200190815260200160002081905550848173ffffffffffffffffffffffffffffffffffffffff168573ffffffffffffffffffffffffffffffffffffffff167fddf252ad1be2c89b69c2b068fc378daa952ba7f163c4a11628f55a4df523b3ef60405160405180910390a45050505050565b60086020528060005260406000206000915054906101000a900473ffffffffffffffffffffffffffffffffffffffff1681565b6000610b1282611171565b9050919050565b60008073ffffffffffffffffffffffffffffffffffffffff168273ffffffffffffffffffffffffffffffffffffffff1603610b8c5760006040517f89c62b64000000000000000000000000000000000000000000000000000000008152600401610b839190612309565b60405180910390fd5b600360008373ffffffffffffffffffffffffffffffffffffffff1673ffffffffffffffffffffffffffffffffffffffff168152602001908152602001600020549050919050565b600a6020528060005260406000206000915090505481565b6000600a6000838152602001908152602001600020549050919050565b600b6020528060005260406000206000915054906101000a900460ff1681565b606060018054610c37906127f5565b80601f0160208091040260200160405190810160405280929190818152602001828054610c63906127f5565b8015610cb05780601f10610c8557610100808354040283529160200191610cb0565b820191906000526020600020905b815481529060010190602001808311610c9357829003601f168201915b5050505050905090565b610ccc610cc5611236565b83836115d7565b5050565b60096020528060005260406000206000915090505481565b610cf38484846106e0565b610cff84848484611746565b50505050565b600060076000815480929190610d1a906129ce565b919050555060006007549050610d3087826118fd565b610d7e8185858080601f016020809104026020016040519081016040528093929190818152602001838380828437600081840152601f19601f820116905080830192505050505050506119f6565b866008600083815260200190815260200160002060006101000a81548173ffffffffffffffffffffffffffffffffffffffff021916908373ffffffffffffffffffffffffffffffffffffffff16021790555085600960008381526020019081526020016000208190555084600a6000838152602001908152602001600020819055506001600b600083815260200190815260200160002060006101000a81548160ff0219169083151502179055508091505095945050505050565b600060096000838152602001908152602001600020549050919050565b6060610e6182611171565b506000600660008481526020019081526020016000208054610e82906127f5565b80601f0160208091040260200160405190810160405280929190818152602001828054610eae906127f5565b8015610efb5780601f10610ed057610100808354040283529160200191610efb565b820191906000526020600020905b815481529060010190602001808311610ede57829003601f168201915b505050505090506000610f0c611a52565b90506000815103610f21578192505050610f64565b600082511115610f56578082604051602001610f3e929190612a52565b60405160208183030381529060405292505050610f64565b610f5f84611a69565b925050505b919050565b6000600560008473ffffffffffffffffffffffffffffffffffffffff1673ffffffffffffffffffffffffffffffffffffffff16815260200190815260200160002060008373ffffffffffffffffffffffffffffffffffffffff1673ffffffffffffffffffffffffffffffffffffffff16815260200190815260200160002060009054906101000a900460ff16905092915050565b3373ffffffffffffffffffffffffffffffffffffffff1661101d83610b07565b73ffffffffffffffffffffffffffffffffffffffff1614611073576040517f08c379a000000000000000000000000000000000000000000000000000000000815260040161106a90612ae8565b60405180910390fd5b8060096000848152602001908152602001600020819055505050565b60007f80ac58cd000000000000000000000000000000000000000000000000000000007bffffffffffffffffffffffffffffffffffffffffffffffffffffffff1916827bffffffffffffffffffffffffffffffffffffffffffffffffffffffff1916148061115a57507f5b5e139f000000000000000000000000000000000000000000000000000000007bffffffffffffffffffffffffffffffffffffffffffffffffffffffff1916827bffffffffffffffffffffffffffffffffffffffffffffffffffffffff1916145b8061116a575061116982611ad2565b5b9050919050565b60008061117d83611b3c565b9050600073ffffffffffffffffffffffffffffffffffffffff168173ffffffffffffffffffffffffffffffffffffffff16036111f057826040517f7e2732890000000000000000000000000000000000000000000000000000000081526004016111e7919061241f565b60405180910390fd5b80915050919050565b60006004600083815260200190815260200160002060009054906101000a900473ffffffffffffffffffffffffffffffffffffffff169050919050565b600033905090565b61124b8383836001611b79565b505050565b60008061125c84611b3c565b9050600073ffffffffffffffffffffffffffffffffffffffff168373ffffffffffffffffffffffffffffffffffffffff161461129e5761129d818486611d3e565b5b600073ffffffffffffffffffffffffffffffffffffffff168173ffffffffffffffffffffffffffffffffffffffff161461132f576112e0600085600080611b79565b6001600360008373ffffffffffffffffffffffffffffffffffffffff1673ffffffffffffffffffffffffffffffffffffffff168152602001908152602001600020600082825403925050819055505b600073ffffffffffffffffffffffffffffffffffffffff168573ffffffffffffffffffffffffffffffffffffffff16146113b2576001600360008773ffffffffffffffffffffffffffffffffffffffff1673ffffffffffffffffffffffffffffffffffffffff168152602001908152602001600020600082825401925050819055505b846002600086815260200190815260200160002060006101000a81548173ffffffffffffffffffffffffffffffffffffffff021916908373ffffffffffffffffffffffffffffffffffffffff160217905550838573ffffffffffffffffffffffffffffffffffffffff168273ffffffffffffffffffffffffffffffffffffffff167fddf252ad1be2c89b69c2b068fc378daa952ba7f163c4a11628f55a4df523b3ef60405160405180910390a4809150509392505050565b600073ffffffffffffffffffffffffffffffffffffffff168273ffffffffffffffffffffffffffffffffffffffff16036114dc5760006040517f64a0ae920000000000000000000000000000000000000000000000000000000081526004016114d39190612309565b60405180910390fd5b60006114ea83836000611250565b9050600073ffffffffffffffffffffffffffffffffffffffff168173ffffffffffffffffffffffffffffffffffffffff160361155d57816040517f7e273289000000000000000000000000000000000000000000000000000000008152600401611554919061241f565b60405180910390fd5b8373ffffffffffffffffffffffffffffffffffffffff168173ffffffffffffffffffffffffffffffffffffffff16146115d1578382826040517f64283d7b0000000000000000000000000000000000000000000000000000000081526004016115c893929190612826565b60405180910390fd5b50505050565b600073ffffffffffffffffffffffffffffffffffffffff168273ffffffffffffffffffffffffffffffffffffffff160361164857816040517f5b08ba1800000000000000000000000000000000000000000000000000000000815260040161163f9190612309565b60405180910390fd5b80600560008573ffffffffffffffffffffffffffffffffffffffff1673ffffffffffffffffffffffffffffffffffffffff16815260200190815260200160002060008473ffffffffffffffffffffffffffffffffffffffff1673ffffffffffffffffffffffffffffffffffffffff16815260200190815260200160002060006101000a81548160ff0219169083151502179055508173ffffffffffffffffffffffffffffffffffffffff168373ffffffffffffffffffffffffffffffffffffffff167f17307eab39ab6107e8899845ad3d59bd9653f200f220920489ca2b5937696c31836040516117399190612198565b60405180910390a3505050565b60008373ffffffffffffffffffffffffffffffffffffffff163b11156118f7578273ffffffffffffffffffffffffffffffffffffffff1663150b7a0261178a611236565b8685856040518563ffffffff1660e01b81526004016117ac9493929190612b5d565b6020604051808303816000875af19250505080156117e857506040513d601f19601f820116820180604052508101906117e59190612bbe565b60015b61186c573d8060008114611818576040519150601f19603f3d011682016040523d82523d6000602084013e61181d565b606091505b50600081510361186457836040517f64a0ae9200000000000000000000000000000000000000000000000000000000815260040161185b9190612309565b60405180910390fd5b805181602001fd5b63150b7a0260e01b7bffffffffffffffffffffffffffffffffffffffffffffffffffffffff1916817bffffffffffffffffffffffffffffffffffffffffffffffffffffffff1916146118f557836040517f64a0ae920000000000000000000000000000000000000000000000000000000081526004016118ec9190612309565b60405180910390fd5b505b50505050565b600073ffffffffffffffffffffffffffffffffffffffff168273ffffffffffffffffffffffffffffffffffffffff160361196f5760006040517f64a0ae920000000000000000000000000000000000000000000000000000000081526004016119669190612309565b60405180910390fd5b600061197d83836000611250565b9050600073ffffffffffffffffffffffffffffffffffffffff168173ffffffffffffffffffffffffffffffffffffffff16146119f15760006040517f73c6ac6e0000000000000000000000000000000000000000000000000000000081526004016119e89190612309565b60405180910390fd5b505050565b80600660008481526020019081526020016000209081611a169190612d97565b507ff8e1a15aba9398e019f0b49df1a4fde98ee17ae345cb5f6b5e2c27f5033e8ce782604051611a46919061241f565b60405180910390a15050565b606060405180602001604052806000815250905090565b6060611a7482611171565b506000611a7f611a52565b90506000815111611a9f5760405180602001604052806000815250611aca565b80611aa984611e02565b604051602001611aba929190612a52565b6040516020818303038152906040525b915050919050565b60007f01ffc9a7000000000000000000000000000000000000000000000000000000007bffffffffffffffffffffffffffffffffffffffffffffffffffffffff1916827bffffffffffffffffffffffffffffffffffffffffffffffffffffffff1916149050919050565b60006002600083815260200190815260200160002060009054906101000a900473ffffffffffffffffffffffffffffffffffffffff169050919050565b8080611bb25750600073ffffffffffffffffffffffffffffffffffffffff168273ffffffffffffffffffffffffffffffffffffffff1614155b15611ce6576000611bc284611171565b9050600073ffffffffffffffffffffffffffffffffffffffff168373ffffffffffffffffffffffffffffffffffffffff1614158015611c2d57508273ffffffffffffffffffffffffffffffffffffffff168173ffffffffffffffffffffffffffffffffffffffff1614155b8015611c405750611c3e8184610f69565b155b15611c8257826040517fa9fbf51f000000000000000000000000000000000000000000000000000000008152600401611c799190612309565b60405180910390fd5b8115611ce457838573ffffffffffffffffffffffffffffffffffffffff168273ffffffffffffffffffffffffffffffffffffffff167f8c5be1e5ebec7d5bd14f71427d1e84f3dd0314c0f7b2291e5b200ac8c7c3b92560405160405180910390a45b505b836004600085815260200190815260200160002060006101000a81548173ffffffffffffffffffffffffffffffffffffffff021916908373ffffffffffffffffffffffffffffffffffffffff16021790555050505050565b611d49838383611ed0565b611dfd57600073ffffffffffffffffffffffffffffffffffffffff168373ffffffffffffffffffffffffffffffffffffffff1603611dbe57806040517f7e273289000000000000000000000000000000000000000000000000000000008152600401611db5919061241f565b60405180910390fd5b81816040517f177e802f000000000000000000000000000000000000000000000000000000008152600401611df4929190612e69565b60405180910390fd5b505050565b606060006001611e1184611f91565b01905060008167ffffffffffffffff811115611e3057611e2f6124b0565b5b6040519080825280601f01601f191660200182016040528015611e625781602001600182028036833780820191505090505b509050600082602001820190505b600115611ec5578080600190039150507f3031323334353637383961626364656600000000000000000000000000000000600a86061a8153600a8581611eb957611eb861293a565b5b04945060008503611e70575b819350505050919050565b60008073ffffffffffffffffffffffffffffffffffffffff168373ffffffffffffffffffffffffffffffffffffffff1614158015611f8857508273ffffffffffffffffffffffffffffffffffffffff168473ffffffffffffffffffffffffffffffffffffffff161480611f495750611f488484610f69565b5b80611f8757508273ffffffffffffffffffffffffffffffffffffffff16611f6f836111f9565b73ffffffffffffffffffffffffffffffffffffffff16145b5b90509392505050565b600080600090507a184f03e93ff9f4daa797ed6e38ed64bf6a1f0100000000000000008310611fef577a184f03e93ff9f4daa797ed6e38ed64bf6a1f0100000000000000008381611fe557611fe461293a565b5b0492506040810190505b6d04ee2d6d415b85acef8100000000831061202c576d04ee2d6d415b85acef810000000083816120225761202161293a565b5b0492506020810190505b662386f26fc10000831061205b57662386f26fc1000083816120515761205061293a565b5b0492506010810190505b6305f5e1008310612084576305f5e100838161207a5761207961293a565b5b0492506008810190505b61271083106120a957612710838161209f5761209e61293a565b5b0492506004810190505b606483106120cc57606483816120c2576120c161293a565b5b0492506002810190505b600a83106120db576001810190505b80915050919050565b6000604051905090565b600080fd5b600080fd5b60007fffffffff0000000000000000000000000000000000000000000000000000000082169050919050565b61212d816120f8565b811461213857600080fd5b50565b60008135905061214a81612124565b92915050565b600060208284031215612166576121656120ee565b5b60006121748482850161213b565b91505092915050565b60008115159050919050565b6121928161217d565b82525050565b60006020820190506121ad6000830184612189565b92915050565b600081519050919050565b600082825260208201905092915050565b60005b838110156121ed5780820151818401526020810190506121d2565b60008484015250505050565b6000601f19601f8301169050919050565b6000612215826121b3565b61221f81856121be565b935061222f8185602086016121cf565b612238816121f9565b840191505092915050565b6000602082019050818103600083015261225d818461220a565b905092915050565b6000819050919050565b61227881612265565b811461228357600080fd5b50565b6000813590506122958161226f565b92915050565b6000602082840312156122b1576122b06120ee565b5b60006122bf84828501612286565b91505092915050565b600073ffffffffffffffffffffffffffffffffffffffff82169050919050565b60006122f3826122c8565b9050919050565b612303816122e8565b82525050565b600060208201905061231e60008301846122fa565b92915050565b61232d816122e8565b811461233857600080fd5b50565b60008135905061234a81612324565b92915050565b60008060408385031215612367576123666120ee565b5b60006123758582860161233b565b925050602061238685828601612286565b9150509250929050565b6000806000606084860312156123a9576123a86120ee565b5b60006123b78682870161233b565b93505060206123c88682870161233b565b92505060406123d986828701612286565b9150509250925092565b6000602082840312156123f9576123f86120ee565b5b60006124078482850161233b565b91505092915050565b61241981612265565b82525050565b60006020820190506124346000830184612410565b92915050565b6124438161217d565b811461244e57600080fd5b50565b6000813590506124608161243a565b92915050565b6000806040838503121561247d5761247c6120ee565b5b600061248b8582860161233b565b925050602061249c85828601612451565b9150509250929050565b600080fd5b600080fd5b7f4e487b7100000000000000000000000000000000000000000000000000000000600052604160045260246000fd5b6124e8826121f9565b810181811067ffffffffffffffff82111715612507576125066124b0565b5b80604052505050565b600061251a6120e4565b905061252682826124df565b919050565b600067ffffffffffffffff821115612546576125456124b0565b5b61254f826121f9565b9050602081019050919050565b82818337600083830152505050565b600061257e6125798461252b565b612510565b90508281526020810184848401111561259a576125996124ab565b5b6125a584828561255c565b509392505050565b600082601f8301126125c2576125c16124a6565b5b81356125d284826020860161256b565b91505092915050565b600080600080608085870312156125f5576125f46120ee565b5b60006126038782880161233b565b94505060206126148782880161233b565b935050604061262587828801612286565b925050606085013567ffffffffffffffff811115612646576126456120f3565b5b612652878288016125ad565b91505092959194509250565b600080fd5b600080fd5b60008083601f84011261267e5761267d6124a6565b5b8235905067ffffffffffffffff81111561269b5761269a61265e565b5b6020830191508360018202830111156126b7576126b6612663565b5b9250929050565b6000806000806000608086880312156126da576126d96120ee565b5b60006126e88882890161233b565b95505060206126f988828901612286565b945050604061270a88828901612286565b935050606086013567ffffffffffffffff81111561272b5761272a6120f3565b5b61273788828901612668565b92509250509295509295909350565b6000806040838503121561275d5761275c6120ee565b5b600061276b8582860161233b565b925050602061277c8582860161233b565b9150509250929050565b6000806040838503121561279d5761279c6120ee565b5b60006127ab85828601612286565b92505060206127bc85828601612286565b9150509250929050565b7f4e487b7100000000000000000000000000000000000000000000000000000000600052602260045260246000fd5b6000600282049050600182168061280d57607f821691505b6020821081036128205761281f6127c6565b5b50919050565b600060608201905061283b60008301866122fa565b6128486020830185612410565b61285560408301846122fa565b949350505050565b7f4d61726b65743a20546f6b656e206e6f7420666f756e64000000000000000000600082015250565b60006128936017836121be565b915061289e8261285d565b602082019050919050565b600060208201905081810360008301526128c281612886565b9050919050565b7f4e487b7100000000000000000000000000000000000000000000000000000000600052601160045260246000fd5b600061290382612265565b915061290e83612265565b925082820261291c81612265565b91508282048414831517612933576129326128c9565b5b5092915050565b7f4e487b7100000000000000000000000000000000000000000000000000000000600052601260045260246000fd5b600061297482612265565b915061297f83612265565b92508261298f5761298e61293a565b5b828204905092915050565b60006129a582612265565b91506129b083612265565b92508282039050818111156129c8576129c76128c9565b5b92915050565b60006129d982612265565b91507fffffffffffffffffffffffffffffffffffffffffffffffffffffffffffffffff8203612a0b57612a0a6128c9565b5b600182019050919050565b600081905092915050565b6000612a2c826121b3565b612a368185612a16565b9350612a468185602086016121cf565b80840191505092915050565b6000612a5e8285612a21565b9150612a6a8284612a21565b91508190509392505050565b7f4d61726b65743a2043616c6c6572206973206e6f742074686520746f6b656e2060008201527f6f776e6572000000000000000000000000000000000000000000000000000000602082015250565b6000612ad26025836121be565b9150612add82612a76565b604082019050919050565b60006020820190508181036000830152612b0181612ac5565b9050919050565b600081519050919050565b600082825260208201905092915050565b6000612b2f82612b08565b612b398185612b13565b9350612b498185602086016121cf565b612b52816121f9565b840191505092915050565b6000608082019050612b7260008301876122fa565b612b7f60208301866122fa565b612b8c6040830185612410565b8181036060830152612b9e8184612b24565b905095945050505050565b600081519050612bb881612124565b92915050565b600060208284031215612bd457612bd36120ee565b5b6000612be284828501612ba9565b91505092915050565b60008190508160005260206000209050919050565b60006020601f8301049050919050565b600082821b905092915050565b600060088302612c4d7fffffffffffffffffffffffffffffffffffffffffffffffffffffffffffffffff82612c10565b612c578683612c10565b95508019841693508086168417925050509392505050565b6000819050919050565b6000612c94612c8f612c8a84612265565b612c6f565b612265565b9050919050565b6000819050919050565b612cae83612c79565b612cc2612cba82612c9b565b848454612c1d565b825550505050565b600090565b612cd7612cca565b612ce2818484612ca5565b505050565b5b81811015612d0657612cfb600082612ccf565b600181019050612ce8565b5050565b601f821115612d4b57612d1c81612beb565b612d2584612c00565b81016020851015612d34578190505b612d48612d4085612c00565b830182612ce7565b50505b505050565b600082821c905092915050565b6000612d6e60001984600802612d50565b1980831691505092915050565b6000612d878383612d5d565b9150826002028217905092915050565b612da0826121b3565b67ffffffffffffffff811115612db957612db86124b0565b5b612dc382546127f5565b612dce828285612d0a565b600060209050601f831160018114612e015760008415612def578287015190505b612df98582612d7b565b865550612e61565b601f198416612e0f86612beb565b60005b82811015612e3757848901518255600182019150602085019450602081019050612e12565b86831015612e545784890151612e50601f891682612d5d565b8355505b6001600288020188555050505b505050505050565b6000604082019050612e7e60008301856122fa565b612e8b6020830184612410565b939250505056fea2646970667358221220238c8ecc75758653b52eb43bc211b278336a7b2f77e72d2e68487a6a9aaeede964736f6c63430008140033",
  "linkReferences": {},
  "deployedLinkReferences": {}
}